{
  "contractName": "MunicoinExchange",
  "abi": [
    {
      "inputs": [
        {
          "internalType": "contract Municoin",
          "name": "_municoin",
          "type": "address"
        },
        {
          "internalType": "uint256",
          "name": "_price",
          "type": "uint256"
        }
      ],
      "stateMutability": "nonpayable",
      "type": "constructor"
    },
    {
      "anonymous": false,
      "inputs": [
        {
          "indexed": false,
          "internalType": "address",
          "name": "_seller",
          "type": "address"
        },
        {
          "indexed": true,
          "internalType": "uint256",
          "name": "_amount",
          "type": "uint256"
        }
      ],
      "name": "Sell",
      "type": "event"
    },
    {
      "inputs": [],
      "name": "municoin",
      "outputs": [
        {
          "internalType": "contract Municoin",
          "name": "",
          "type": "address"
        }
      ],
      "stateMutability": "view",
      "type": "function",
      "constant": true
    },
    {
      "inputs": [],
      "name": "price",
      "outputs": [
        {
          "internalType": "uint256",
          "name": "",
          "type": "uint256"
        }
      ],
      "stateMutability": "view",
      "type": "function",
      "constant": true
    },
    {
      "inputs": [],
      "name": "tokensSold",
      "outputs": [
        {
          "internalType": "uint256",
          "name": "",
          "type": "uint256"
        }
      ],
      "stateMutability": "view",
      "type": "function",
      "constant": true
    },
    {
      "inputs": [
        {
          "internalType": "uint256",
          "name": "_amount",
          "type": "uint256"
        }
      ],
      "name": "buy",
      "outputs": [],
      "stateMutability": "payable",
      "type": "function",
      "payable": true
    },
    {
      "inputs": [],
      "name": "closeExchange",
      "outputs": [],
      "stateMutability": "nonpayable",
      "type": "function"
    }
  ],
  "bytecode": "0x608060405234801561001057600080fd5b50604051610a03380380610a038339818101604052810190610032919061016c565b336000806101000a81548173ffffffffffffffffffffffffffffffffffffffff021916908373ffffffffffffffffffffffffffffffffffffffff16021790555081600160006101000a81548173ffffffffffffffffffffffffffffffffffffffff021916908373ffffffffffffffffffffffffffffffffffffffff1602179055508060028190555050506101ac565b600080fd5b600073ffffffffffffffffffffffffffffffffffffffff82169050919050565b60006100f1826100c6565b9050919050565b6000610103826100e6565b9050919050565b610113816100f8565b811461011e57600080fd5b50565b6000815190506101308161010a565b92915050565b6000819050919050565b61014981610136565b811461015457600080fd5b50565b60008151905061016681610140565b92915050565b60008060408385031215610183576101826100c1565b5b600061019185828601610121565b92505060206101a285828601610157565b9150509250929050565b610848806101bb6000396000f3fe60806040526004361061004a5760003560e01c80630494963d1461004f578063518ab2a814610066578063a035b1fe14610091578063d96a094a146100bc578063e0fbebbb146100d8575b600080fd5b34801561005b57600080fd5b50610064610103565b005b34801561007257600080fd5b5061007b6102f8565b6040516100889190610514565b60405180910390f35b34801561009d57600080fd5b506100a66102fe565b6040516100b39190610514565b60405180910390f35b6100d660048036038101906100d19190610560565b610304565b005b3480156100e457600080fd5b506100ed6104be565b6040516100fa919061060c565b60405180910390f35b60008054906101000a900473ffffffffffffffffffffffffffffffffffffffff1673ffffffffffffffffffffffffffffffffffffffff163373ffffffffffffffffffffffffffffffffffffffff161461015b57600080fd5b600160009054906101000a900473ffffffffffffffffffffffffffffffffffffffff1673ffffffffffffffffffffffffffffffffffffffff1663a9059cbb60008054906101000a900473ffffffffffffffffffffffffffffffffffffffff16600160009054906101000a900473ffffffffffffffffffffffffffffffffffffffff1673ffffffffffffffffffffffffffffffffffffffff166370a08231306040518263ffffffff1660e01b81526004016102159190610648565b602060405180830381865afa158015610232573d6000803e3d6000fd5b505050506040513d601f19601f820116820180604052508101906102569190610678565b6040518363ffffffff1660e01b81526004016102739291906106a5565b6020604051808303816000875af1158015610292573d6000803e3d6000fd5b505050506040513d601f19601f820116820180604052508101906102b69190610706565b6102bf57600080fd5b60008054906101000a900473ffffffffffffffffffffffffffffffffffffffff1673ffffffffffffffffffffffffffffffffffffffff16ff5b60035481565b60025481565b61030d816104e4565b34101561031957600080fd5b80600160009054906101000a900473ffffffffffffffffffffffffffffffffffffffff1673ffffffffffffffffffffffffffffffffffffffff166370a08231306040518263ffffffff1660e01b81526004016103759190610648565b602060405180830381865afa158015610392573d6000803e3d6000fd5b505050506040513d601f19601f820116820180604052508101906103b69190610678565b10156103c157600080fd5b600160009054906101000a900473ffffffffffffffffffffffffffffffffffffffff1673ffffffffffffffffffffffffffffffffffffffff1663a9059cbb33836040518363ffffffff1660e01b815260040161041e9291906106a5565b6020604051808303816000875af115801561043d573d6000803e3d6000fd5b505050506040513d601f19601f820116820180604052508101906104619190610706565b61046a57600080fd5b806003600082825461047c9190610762565b92505081905550807f5e5e995ce3133561afceaa51a9a154d5db228cd7525d34df5185582c18d3df09336040516104b39190610648565b60405180910390a250565b600160009054906101000a900473ffffffffffffffffffffffffffffffffffffffff1681565b6000600254826104f491906107b8565b9050919050565b6000819050919050565b61050e816104fb565b82525050565b60006020820190506105296000830184610505565b92915050565b600080fd5b61053d816104fb565b811461054857600080fd5b50565b60008135905061055a81610534565b92915050565b6000602082840312156105765761057561052f565b5b60006105848482850161054b565b91505092915050565b600073ffffffffffffffffffffffffffffffffffffffff82169050919050565b6000819050919050565b60006105d26105cd6105c88461058d565b6105ad565b61058d565b9050919050565b60006105e4826105b7565b9050919050565b60006105f6826105d9565b9050919050565b610606816105eb565b82525050565b600060208201905061062160008301846105fd565b92915050565b60006106328261058d565b9050919050565b61064281610627565b82525050565b600060208201905061065d6000830184610639565b92915050565b60008151905061067281610534565b92915050565b60006020828403121561068e5761068d61052f565b5b600061069c84828501610663565b91505092915050565b60006040820190506106ba6000830185610639565b6106c76020830184610505565b9392505050565b60008115159050919050565b6106e3816106ce565b81146106ee57600080fd5b50565b600081519050610700816106da565b92915050565b60006020828403121561071c5761071b61052f565b5b600061072a848285016106f1565b91505092915050565b7f4e487b7100000000000000000000000000000000000000000000000000000000600052601160045260246000fd5b600061076d826104fb565b9150610778836104fb565b9250827fffffffffffffffffffffffffffffffffffffffffffffffffffffffffffffffff038211156107ad576107ac610733565b5b828201905092915050565b60006107c3826104fb565b91506107ce836104fb565b9250817fffffffffffffffffffffffffffffffffffffffffffffffffffffffffffffffff048311821515161561080757610806610733565b5b82820290509291505056fea26469706673582212203d77537a7135fea081f9e92b1100b6bc2c9d8f8777c47b709ef7e21d5e5bc4e664736f6c634300080b0033",
  "immutableReferences": {},
  "source": "// SPDX-License-Identifier: MIT\npragma solidity ^0.8.10;\n\nimport \"./Municoin.sol\";\n\ncontract MunicoinExchange {\n    address admin;\n    Municoin public municoin;\n    uint256 public price;\n    uint256 public tokensSold;\n\n    event Sell(address _seller, uint256 indexed _amount);\n\n    modifier isAdmin() {\n        require(msg.sender == admin);\n        _;\n    }\n\n    constructor(Municoin _municoin, uint256 _price) {\n        admin = msg.sender;\n        municoin = _municoin;\n        price = _price;\n    }\n\n    function getPrice(uint256 _amount) private view returns (uint256) {\n        return _amount * price;\n    }\n\n    function buy(uint256 _amount) public payable {\n        require(msg.value >= getPrice(_amount));\n        require(municoin.balanceOf(address(this)) >= _amount);\n        require(municoin.transfer(msg.sender, _amount));\n\n        tokensSold += _amount;\n\n        emit Sell(msg.sender, _amount);\n    }\n\n    function closeExchange() public isAdmin {\n        require(municoin.transfer(admin, municoin.balanceOf(address(this))));\n        selfdestruct(payable(admin));\n    }\n}\n",
  "sourcePath": "/Users/martinmunilla/dev/MuniCoin/src/contracts/MunicoinExchange.sol",
  "compiler": {
    "name": "solc",
    "version": "0.8.11+commit.d7f03943.Emscripten.clang"
  },
  "schemaVersion": "3.4.4",
  "updatedAt": "2022-01-08T20:13:30.695Z",
  "networkType": "ethereum",
  "devdoc": {
    "kind": "dev",
    "methods": {},
    "version": 1
  },
  "userdoc": {
    "kind": "user",
    "methods": {},
    "version": 1
  }
}