{
  "contractName": "MunicoinExchange",
  "abi": [
    {
      "inputs": [
        {
          "internalType": "contract Municoin",
          "name": "_municoin",
          "type": "address"
        }
      ],
      "stateMutability": "nonpayable",
      "type": "constructor"
    },
    {
      "anonymous": false,
      "inputs": [
        {
          "indexed": false,
          "internalType": "address",
          "name": "buyer",
          "type": "address"
        },
        {
          "indexed": false,
          "internalType": "uint256",
          "name": "amount",
          "type": "uint256"
        }
      ],
      "name": "Buy",
      "type": "event"
    },
    {
      "anonymous": false,
      "inputs": [
        {
          "indexed": true,
          "internalType": "uint256",
          "name": "amount",
          "type": "uint256"
        },
        {
          "indexed": true,
          "internalType": "uint256",
          "name": "price",
          "type": "uint256"
        }
      ],
      "name": "Close",
      "type": "event"
    },
    {
      "anonymous": false,
      "inputs": [
        {
          "indexed": true,
          "internalType": "uint256",
          "name": "newPrice",
          "type": "uint256"
        }
      ],
      "name": "PriceChange",
      "type": "event"
    },
    {
      "inputs": [],
      "name": "available",
      "outputs": [
        {
          "internalType": "uint256",
          "name": "",
          "type": "uint256"
        }
      ],
      "stateMutability": "view",
      "type": "function",
      "constant": true
    },
    {
      "inputs": [],
      "name": "municoin",
      "outputs": [
        {
          "internalType": "contract Municoin",
          "name": "",
          "type": "address"
        }
      ],
      "stateMutability": "view",
      "type": "function",
      "constant": true
    },
    {
      "inputs": [],
      "name": "price",
      "outputs": [
        {
          "internalType": "uint256",
          "name": "",
          "type": "uint256"
        }
      ],
      "stateMutability": "view",
      "type": "function",
      "constant": true
    },
    {
      "inputs": [],
      "name": "transactionCount",
      "outputs": [
        {
          "internalType": "uint256",
          "name": "",
          "type": "uint256"
        }
      ],
      "stateMutability": "view",
      "type": "function",
      "constant": true
    },
    {
      "inputs": [
        {
          "internalType": "uint256",
          "name": "_amount",
          "type": "uint256"
        },
        {
          "internalType": "uint256",
          "name": "_price",
          "type": "uint256"
        }
      ],
      "name": "sell",
      "outputs": [],
      "stateMutability": "nonpayable",
      "type": "function"
    },
    {
      "inputs": [
        {
          "internalType": "uint256",
          "name": "_amount",
          "type": "uint256"
        }
      ],
      "name": "buy",
      "outputs": [],
      "stateMutability": "payable",
      "type": "function",
      "payable": true
    },
    {
      "inputs": [
        {
          "internalType": "uint256",
          "name": "id",
          "type": "uint256"
        }
      ],
      "name": "closeTransaction",
      "outputs": [],
      "stateMutability": "nonpayable",
      "type": "function"
    },
    {
      "inputs": [],
      "name": "closeExchange",
      "outputs": [],
      "stateMutability": "nonpayable",
      "type": "function"
    }
  ],
  "bytecode": "0x60806040523480156200001157600080fd5b5060405162001c5638038062001c5683398181016040528101906200003791906200014d565b336000806101000a81548173ffffffffffffffffffffffffffffffffffffffff021916908373ffffffffffffffffffffffffffffffffffffffff16021790555080600160006101000a81548173ffffffffffffffffffffffffffffffffffffffff021916908373ffffffffffffffffffffffffffffffffffffffff16021790555060006002819055506000600381905550506200017f565b600080fd5b600073ffffffffffffffffffffffffffffffffffffffff82169050919050565b60006200010182620000d4565b9050919050565b60006200011582620000f4565b9050919050565b620001278162000108565b81146200013357600080fd5b50565b60008151905062000147816200011c565b92915050565b600060208284031215620001665762000165620000cf565b5b6000620001768482850162000136565b91505092915050565b611ac7806200018f6000396000f3fe60806040526004361061007b5760003560e01c8063b77bf6001161004e578063b77bf60014610116578063d79875eb14610141578063d96a094a1461016a578063e0fbebbb146101865761007b565b80630494963d1461008057806347e5bec31461009757806348a0d754146100c0578063a035b1fe146100eb575b600080fd5b34801561008c57600080fd5b506100956101b1565b005b3480156100a357600080fd5b506100be60048036038101906100b991906113ad565b6103a6565b005b3480156100cc57600080fd5b506100d56104bd565b6040516100e291906113e9565b60405180910390f35b3480156100f757600080fd5b506101006104c3565b60405161010d91906113e9565b60405180910390f35b34801561012257600080fd5b5061012b6104c9565b60405161013891906113e9565b60405180910390f35b34801561014d57600080fd5b5061016860048036038101906101639190611404565b6104cf565b005b610184600480360381019061017f91906113ad565b610826565b005b34801561019257600080fd5b5061019b610ab1565b6040516101a891906114c3565b60405180910390f35b60008054906101000a900473ffffffffffffffffffffffffffffffffffffffff1673ffffffffffffffffffffffffffffffffffffffff163373ffffffffffffffffffffffffffffffffffffffff161461020957600080fd5b600160009054906101000a900473ffffffffffffffffffffffffffffffffffffffff1673ffffffffffffffffffffffffffffffffffffffff1663a9059cbb60008054906101000a900473ffffffffffffffffffffffffffffffffffffffff16600160009054906101000a900473ffffffffffffffffffffffffffffffffffffffff1673ffffffffffffffffffffffffffffffffffffffff166370a08231306040518263ffffffff1660e01b81526004016102c391906114ff565b602060405180830381865afa1580156102e0573d6000803e3d6000fd5b505050506040513d601f19601f82011682018060405250810190610304919061152f565b6040518363ffffffff1660e01b815260040161032192919061155c565b6020604051808303816000875af1158015610340573d6000803e3d6000fd5b505050506040513d601f19601f8201168201806040525081019061036491906115bd565b61036d57600080fd5b60008054906101000a900473ffffffffffffffffffffffffffffffffffffffff1673ffffffffffffffffffffffffffffffffffffffff16ff5b60005b6005805490508110156104b85781600582815481106103cb576103ca6115ea565b5b90600052602060002090600502016000015414156104a5573373ffffffffffffffffffffffffffffffffffffffff166005828154811061040e5761040d6115ea565b5b906000526020600020906005020160010160009054906101000a900473ffffffffffffffffffffffffffffffffffffffff1673ffffffffffffffffffffffffffffffffffffffff1614610496576040517f08c379a000000000000000000000000000000000000000000000000000000000815260040161048d90611676565b60405180910390fd5b61049f81610ad7565b506104ba565b80806104b0906116c5565b9150506103a9565b505b50565b60035481565b60025481565b60045481565b81600160009054906101000a900473ffffffffffffffffffffffffffffffffffffffff1673ffffffffffffffffffffffffffffffffffffffff166370a08231336040518263ffffffff1660e01b815260040161052b91906114ff565b602060405180830381865afa158015610548573d6000803e3d6000fd5b505050506040513d601f19601f8201168201806040525081019061056c919061152f565b10156105ad576040517f08c379a00000000000000000000000000000000000000000000000000000000081526004016105a49061175a565b60405180910390fd5b81600160009054906101000a900473ffffffffffffffffffffffffffffffffffffffff1673ffffffffffffffffffffffffffffffffffffffff1663dd62ed3e33306040518363ffffffff1660e01b815260040161060b92919061177a565b602060405180830381865afa158015610628573d6000803e3d6000fd5b505050506040513d601f19601f8201168201806040525081019061064c919061152f565b101561068d576040517f08c379a0000000000000000000000000000000000000000000000000000000008152600401610684906117ef565b60405180910390fd5b600160009054906101000a900473ffffffffffffffffffffffffffffffffffffffff1673ffffffffffffffffffffffffffffffffffffffff166323b872dd3330856040518463ffffffff1660e01b81526004016106ec9392919061180f565b6020604051808303816000875af115801561070b573d6000803e3d6000fd5b505050506040513d601f19601f8201168201806040525081019061072f91906115bd565b61073857600080fd5b60006040518060a0016040528060045481526020013373ffffffffffffffffffffffffffffffffffffffff16815260200184815260200183815260200160008152509050610784610e53565b60058190806001815401808255809150506001900390600052602060002090600502016000909190919091506000820151816000015560208201518160010160006101000a81548173ffffffffffffffffffffffffffffffffffffffff021916908373ffffffffffffffffffffffffffffffffffffffff1602179055506040820151816002015560608201518160030155608082015181600401555050505050565b80600354101561086b576040517f08c379a000000000000000000000000000000000000000000000000000000000815260040161086290611892565b60405180910390fd5b61087481610e65565b3410156108b6576040517f08c379a00000000000000000000000000000000000000000000000000000000081526004016108ad906118fe565b60405180910390fd5b600160009054906101000a900473ffffffffffffffffffffffffffffffffffffffff1673ffffffffffffffffffffffffffffffffffffffff1663a9059cbb33836040518363ffffffff1660e01b815260040161091392919061155c565b6020604051808303816000875af1158015610932573d6000803e3d6000fd5b505050506040513d601f19601f8201168201806040525081019061095691906115bd565b61095f57600080fd5b60008190505b6000811115610a745760006005600081548110610985576109846115ea565b5b90600052602060002090600502016004015460056000815481106109ac576109ab6115ea565b5b9060005260206000209060050201600201546109c8919061191e565b905081811115610a18578160056000815481106109e8576109e76115ea565b5b90600052602060002090600502016004016000828254610a089190611952565b9250508190555060009150610a6e565b8082610a24919061191e565b9150806005600081548110610a3c57610a3b6115ea565b5b90600052602060002090600502016004016000828254610a5c9190611952565b92505081905550610a6d6000610ad7565b5b50610965565b7fe3d4187f6ca4248660cc0ac8b8056515bac4a8132be2eca31d6d0cc170722a7e3383604051610aa592919061155c565b60405180910390a15050565b600160009054906101000a900473ffffffffffffffffffffffffffffffffffffffff1681565b6005805490508110610ae857600080fd5b600060058281548110610afe57610afd6115ea565b5b90600052602060002090600502016040518060a0016040529081600082015481526020016001820160009054906101000a900473ffffffffffffffffffffffffffffffffffffffff1673ffffffffffffffffffffffffffffffffffffffff1673ffffffffffffffffffffffffffffffffffffffff16815260200160028201548152602001600382015481526020016004820154815250509050806020015173ffffffffffffffffffffffffffffffffffffffff166108fc82606001518360800151610bc991906119a8565b9081150290604051600060405180830381858888f19350505050158015610bf4573d6000803e3d6000fd5b5060068190806001815401808255809150506001900390600052602060002090600502016000909190919091506000820151816000015560208201518160010160006101000a81548173ffffffffffffffffffffffffffffffffffffffff021916908373ffffffffffffffffffffffffffffffffffffffff1602179055506040820151816002015560608201518160030155608082015181600401555050806060015181608001517f6f85eafd2ee4262990a69612967f8e54126f2343a62867dc87f5821eebb35ae360405160405180910390a360008290505b6001600580549050610ce0919061191e565b811015610ddc576005600182610cf69190611952565b81548110610d0757610d066115ea565b5b906000526020600020906005020160058281548110610d2957610d286115ea565b5b9060005260206000209060050201600082015481600001556001820160009054906101000a900473ffffffffffffffffffffffffffffffffffffffff168160010160006101000a81548173ffffffffffffffffffffffffffffffffffffffff021916908373ffffffffffffffffffffffffffffffffffffffff1602179055506002820154816002015560038201548160030155600482015481600401559050508080610dd4906116c5565b915050610cce565b506005805480610def57610dee611a02565b5b60019003818190600052602060002090600502016000808201600090556001820160006101000a81549073ffffffffffffffffffffffffffffffffffffffff0219169055600282016000905560038201600090556004820160009055505090555050565b610e5b610e7c565b610e636110ab565b565b600060025482610e7591906119a8565b9050919050565b60008060005b6005805490508110156110615760058181548110610ea357610ea26115ea565b5b90600052602060002090600502016002015460058281548110610ec957610ec86115ea565b5b906000526020600020906005020160040154101561104e578160058281548110610ef657610ef56115ea565b5b90600052602060002090600502016004015460058381548110610f1c57610f1b6115ea565b5b906000526020600020906005020160020154610f38919061191e565b610f429190611952565b8284610f4e91906119a8565b60058381548110610f6257610f616115ea565b5b90600052602060002090600502016004015460058481548110610f8857610f876115ea565b5b906000526020600020906005020160020154610fa4919061191e565b60058481548110610fb857610fb76115ea565b5b906000526020600020906005020160030154610fd491906119a8565b610fde9190611952565b610fe89190611a60565b925060058181548110610ffe57610ffd6115ea565b5b90600052602060002090600502016004015460058281548110611024576110236115ea565b5b906000526020600020906005020160020154836110419190611952565b61104b919061191e565b91505b8080611059906116c5565b915050610e82565b5060025482146110a057817ff347ee99503bf19c028bd6b18f3c676e82a9bb5b2bb5225aebe0fd62fd6a0d1960405160405180910390a2816002819055505b806003819055505050565b60005b60058054905081101561136f5760006001826110ca9190611952565b90505b60058054905081101561135b57600581815481106110ee576110ed6115ea565b5b90600052602060002090600502016003015460058381548110611114576111136115ea565b5b906000526020600020906005020160030154111561134857600060058381548110611142576111416115ea565b5b90600052602060002090600502016040518060a0016040529081600082015481526020016001820160009054906101000a900473ffffffffffffffffffffffffffffffffffffffff1673ffffffffffffffffffffffffffffffffffffffff1673ffffffffffffffffffffffffffffffffffffffff16815260200160028201548152602001600382015481526020016004820154815250509050600582815481106111ef576111ee6115ea565b5b906000526020600020906005020160058481548110611211576112106115ea565b5b9060005260206000209060050201600082015481600001556001820160009054906101000a900473ffffffffffffffffffffffffffffffffffffffff168160010160006101000a81548173ffffffffffffffffffffffffffffffffffffffff021916908373ffffffffffffffffffffffffffffffffffffffff16021790555060028201548160020155600382015481600301556004820154816004015590505080600583815481106112c6576112c56115ea565b5b90600052602060002090600502016000820151816000015560208201518160010160006101000a81548173ffffffffffffffffffffffffffffffffffffffff021916908373ffffffffffffffffffffffffffffffffffffffff160217905550604082015181600201556060820151816003015560808201518160040155905050505b8080611353906116c5565b9150506110cd565b508080611367906116c5565b9150506110ae565b50565b600080fd5b6000819050919050565b61138a81611377565b811461139557600080fd5b50565b6000813590506113a781611381565b92915050565b6000602082840312156113c3576113c2611372565b5b60006113d184828501611398565b91505092915050565b6113e381611377565b82525050565b60006020820190506113fe60008301846113da565b92915050565b6000806040838503121561141b5761141a611372565b5b600061142985828601611398565b925050602061143a85828601611398565b9150509250929050565b600073ffffffffffffffffffffffffffffffffffffffff82169050919050565b6000819050919050565b600061148961148461147f84611444565b611464565b611444565b9050919050565b600061149b8261146e565b9050919050565b60006114ad82611490565b9050919050565b6114bd816114a2565b82525050565b60006020820190506114d860008301846114b4565b92915050565b60006114e982611444565b9050919050565b6114f9816114de565b82525050565b600060208201905061151460008301846114f0565b92915050565b60008151905061152981611381565b92915050565b60006020828403121561154557611544611372565b5b60006115538482850161151a565b91505092915050565b600060408201905061157160008301856114f0565b61157e60208301846113da565b9392505050565b60008115159050919050565b61159a81611585565b81146115a557600080fd5b50565b6000815190506115b781611591565b92915050565b6000602082840312156115d3576115d2611372565b5b60006115e1848285016115a8565b91505092915050565b7f4e487b7100000000000000000000000000000000000000000000000000000000600052603260045260246000fd5b600082825260208201905092915050565b7f4e6f74206f776e65720000000000000000000000000000000000000000000000600082015250565b6000611660600983611619565b915061166b8261162a565b602082019050919050565b6000602082019050818103600083015261168f81611653565b9050919050565b7f4e487b7100000000000000000000000000000000000000000000000000000000600052601160045260246000fd5b60006116d082611377565b91507fffffffffffffffffffffffffffffffffffffffffffffffffffffffffffffffff82141561170357611702611696565b5b600182019050919050565b7f4e6f7420656e6f7567682062616c616e63650000000000000000000000000000600082015250565b6000611744601283611619565b915061174f8261170e565b602082019050919050565b6000602082019050818103600083015261177381611737565b9050919050565b600060408201905061178f60008301856114f0565b61179c60208301846114f0565b9392505050565b7f4e6f7420656e6f75676820616c6c6f77616e6365000000000000000000000000600082015250565b60006117d9601483611619565b91506117e4826117a3565b602082019050919050565b60006020820190508181036000830152611808816117cc565b9050919050565b600060608201905061182460008301866114f0565b61183160208301856114f0565b61183e60408301846113da565b949350505050565b7f4e6f7420656e6f75676820746f6b656e7320617661696c61626c650000000000600082015250565b600061187c601b83611619565b915061188782611846565b602082019050919050565b600060208201905081810360008301526118ab8161186f565b9050919050565b7f4e6f7420656e6f75676820455448000000000000000000000000000000000000600082015250565b60006118e8600e83611619565b91506118f3826118b2565b602082019050919050565b60006020820190508181036000830152611917816118db565b9050919050565b600061192982611377565b915061193483611377565b92508282101561194757611946611696565b5b828203905092915050565b600061195d82611377565b915061196883611377565b9250827fffffffffffffffffffffffffffffffffffffffffffffffffffffffffffffffff0382111561199d5761199c611696565b5b828201905092915050565b60006119b382611377565b91506119be83611377565b9250817fffffffffffffffffffffffffffffffffffffffffffffffffffffffffffffffff04831182151516156119f7576119f6611696565b5b828202905092915050565b7f4e487b7100000000000000000000000000000000000000000000000000000000600052603160045260246000fd5b7f4e487b7100000000000000000000000000000000000000000000000000000000600052601260045260246000fd5b6000611a6b82611377565b9150611a7683611377565b925082611a8657611a85611a31565b5b82820490509291505056fea26469706673582212202edd2abc430811aa7e0068f5e666f70e9088fb87726d2a9f4878dd0ab55aac8964736f6c634300080b0033",
  "immutableReferences": {},
  "source": "// SPDX-License-Identifier: MIT\npragma solidity ^0.8.10;\n\nimport \"./Municoin.sol\";\n\nstruct Transaction {\n    uint256 id;\n    address owner;\n    uint256 amount;\n    uint256 price;\n    uint256 amountSold;\n}\n\ncontract MunicoinExchange {\n    address admin;\n    Municoin public municoin;\n    uint256 public price;\n    uint256 public available;\n    uint256 public transactionCount;\n\n    Transaction[] openTransactions;\n    Transaction[] closedTransactions;\n\n    modifier isAdmin() {\n        require(msg.sender == admin);\n        _;\n    }\n\n    constructor(Municoin _municoin) {\n        admin = msg.sender;\n        municoin = _municoin;\n        price = 0;\n        available = 0;\n    }\n\n    event Buy(address buyer, uint256 amount);\n    event Close(uint256 indexed amount, uint256 indexed price);\n    event PriceChange(uint256 indexed newPrice);\n\n    function sell(uint256 _amount, uint256 _price) public {\n        require(\n            municoin.balanceOf(msg.sender) >= _amount,\n            \"Not enough balance\"\n        );\n        require(\n            municoin.allowance(msg.sender, address(this)) >= _amount,\n            \"Not enough allowance\"\n        );\n        require(municoin.transferFrom(msg.sender, address(this), _amount));\n\n        Transaction memory pending = Transaction({\n            id: transactionCount,\n            owner: msg.sender,\n            amount: _amount,\n            price: _price,\n            amountSold: 0\n        });\n\n        handleNewTransactionSideEffects();\n\n        openTransactions.push(pending);\n    }\n\n    function buy(uint256 _amount) public payable {\n        require(available >= _amount, \"Not enough tokens available\");\n        require(msg.value >= getPrice(_amount), \"Not enough ETH\");\n        require(municoin.transfer(msg.sender, _amount));\n\n        uint256 _pendingAmount = _amount;\n        while (_pendingAmount > 0) {\n            uint256 _transactionAvailable = openTransactions[0].amount -\n                openTransactions[0].amountSold;\n\n            if (_transactionAvailable > _pendingAmount) {\n                openTransactions[0].amountSold += _pendingAmount;\n                _pendingAmount = 0;\n            } else {\n                _pendingAmount -= _transactionAvailable;\n                openTransactions[0].amountSold += _transactionAvailable;\n                closeOpenTransactionAt(0);\n            }\n        }\n\n        emit Buy(msg.sender, _amount);\n    }\n\n    function closeOpenTransactionAt(uint256 _index) private {\n        require(_index < openTransactions.length);\n        Transaction memory closed = openTransactions[_index];\n        payable(closed.owner).transfer(closed.amountSold * closed.price);\n        closedTransactions.push(closed);\n        emit Close(closed.amountSold, closed.price);\n        for (uint256 i = _index; i < openTransactions.length - 1; i++) {\n            openTransactions[i] = openTransactions[i + 1];\n        }\n        openTransactions.pop();\n    }\n\n    function closeTransaction(uint256 id) public {\n        for (uint256 i = 0; i < openTransactions.length; i++) {\n            if (openTransactions[i].id == id) {\n                require(openTransactions[i].owner == msg.sender, \"Not owner\");\n                closeOpenTransactionAt(i);\n                return;\n            }\n        }\n    }\n\n    function getPrice(uint256 _amount) private view returns (uint256) {\n        return _amount * price;\n    }\n\n    function refreshPrice() private {\n        uint256 _price = 0;\n        uint256 _available = 0;\n        for (uint256 i = 0; i < openTransactions.length; i++) {\n            if (openTransactions[i].amountSold < openTransactions[i].amount) {\n                _price =\n                    ((openTransactions[i].price *\n                        (openTransactions[i].amount -\n                            openTransactions[i].amountSold)) +\n                        _price *\n                        _available) /\n                    (openTransactions[i].amount -\n                        openTransactions[i].amountSold +\n                        _available);\n                _available =\n                    _available +\n                    openTransactions[i].amount -\n                    openTransactions[i].amountSold;\n            }\n        }\n        if (_price != price) {\n            emit PriceChange(_price);\n            price = _price;\n        }\n        available = _available;\n    }\n\n    function sortTransactions() private {\n        for (uint256 i = 0; i < openTransactions.length; i++) {\n            for (uint256 j = i + 1; j < openTransactions.length; j++) {\n                if (openTransactions[i].price > openTransactions[j].price) {\n                    Transaction memory temp = openTransactions[i];\n                    openTransactions[i] = openTransactions[j];\n                    openTransactions[j] = temp;\n                }\n            }\n        }\n    }\n\n    function handleNewTransactionSideEffects() private {\n        refreshPrice();\n        sortTransactions();\n    }\n\n    function closeExchange() public isAdmin {\n        require(municoin.transfer(admin, municoin.balanceOf(address(this))));\n        selfdestruct(payable(admin));\n    }\n}\n",
  "sourcePath": "/Users/martinmunilla/dev/MuniCoin/src/contracts/MunicoinExchange.sol",
  "compiler": {
    "name": "solc",
    "version": "0.8.11+commit.d7f03943.Emscripten.clang"
  },
  "schemaVersion": "3.4.4",
  "updatedAt": "2022-01-09T23:00:00.783Z",
  "networkType": "ethereum",
  "devdoc": {
    "kind": "dev",
    "methods": {},
    "version": 1
  },
  "userdoc": {
    "kind": "user",
    "methods": {},
    "version": 1
  }
}